{
  "contractName": "Compliant",
  "abi": [
    {
      "inputs": [],
      "stateMutability": "nonpayable",
      "type": "constructor"
    },
    {
      "anonymous": false,
      "inputs": [
        {
          "indexed": true,
          "internalType": "address",
          "name": "owner",
          "type": "address"
        },
        {
          "indexed": true,
          "internalType": "address",
          "name": "spender",
          "type": "address"
        },
        {
          "indexed": false,
          "internalType": "uint256",
          "name": "value",
          "type": "uint256"
        }
      ],
      "name": "Approval",
      "type": "event"
    },
    {
      "anonymous": false,
      "inputs": [
        {
          "indexed": true,
          "internalType": "address",
          "name": "disposer",
          "type": "address"
        },
        {
          "indexed": false,
          "internalType": "string",
          "name": "itemType",
          "type": "string"
        },
        {
          "indexed": false,
          "internalType": "string",
          "name": "itemName",
          "type": "string"
        },
        {
          "indexed": false,
          "internalType": "string",
          "name": "description",
          "type": "string"
        },
        {
          "indexed": false,
          "internalType": "string",
          "name": "itemCategory",
          "type": "string"
        }
      ],
      "name": "ItemRequested",
      "type": "event"
    },
    {
      "anonymous": false,
      "inputs": [
        {
          "indexed": true,
          "internalType": "address",
          "name": "collector",
          "type": "address"
        },
        {
          "indexed": false,
          "internalType": "string",
          "name": "itemType",
          "type": "string"
        },
        {
          "indexed": false,
          "internalType": "uint256",
          "name": "amount",
          "type": "uint256"
        }
      ],
      "name": "ItemVerifiedAndMinted",
      "type": "event"
    },
    {
      "anonymous": false,
      "inputs": [
        {
          "indexed": true,
          "internalType": "address",
          "name": "collector",
          "type": "address"
        },
        {
          "indexed": true,
          "internalType": "address",
          "name": "disposer",
          "type": "address"
        }
      ],
      "name": "MeetingScheduled",
      "type": "event"
    },
    {
      "anonymous": false,
      "inputs": [
        {
          "indexed": true,
          "internalType": "address",
          "name": "previousOwner",
          "type": "address"
        },
        {
          "indexed": true,
          "internalType": "address",
          "name": "newOwner",
          "type": "address"
        }
      ],
      "name": "OwnershipTransferred",
      "type": "event"
    },
    {
      "anonymous": false,
      "inputs": [
        {
          "indexed": true,
          "internalType": "address",
          "name": "from",
          "type": "address"
        },
        {
          "indexed": true,
          "internalType": "address",
          "name": "to",
          "type": "address"
        },
        {
          "indexed": false,
          "internalType": "uint256",
          "name": "value",
          "type": "uint256"
        }
      ],
      "name": "Transfer",
      "type": "event"
    },
    {
      "inputs": [
        {
          "internalType": "address",
          "name": "owner",
          "type": "address"
        },
        {
          "internalType": "address",
          "name": "spender",
          "type": "address"
        }
      ],
      "name": "allowance",
      "outputs": [
        {
          "internalType": "uint256",
          "name": "",
          "type": "uint256"
        }
      ],
      "stateMutability": "view",
      "type": "function"
    },
    {
      "inputs": [
        {
          "internalType": "address",
          "name": "spender",
          "type": "address"
        },
        {
          "internalType": "uint256",
          "name": "amount",
          "type": "uint256"
        }
      ],
      "name": "approve",
      "outputs": [
        {
          "internalType": "bool",
          "name": "",
          "type": "bool"
        }
      ],
      "stateMutability": "nonpayable",
      "type": "function"
    },
    {
      "inputs": [
        {
          "internalType": "address",
          "name": "account",
          "type": "address"
        }
      ],
      "name": "balanceOf",
      "outputs": [
        {
          "internalType": "uint256",
          "name": "",
          "type": "uint256"
        }
      ],
      "stateMutability": "view",
      "type": "function"
    },
    {
      "inputs": [],
      "name": "decimals",
      "outputs": [
        {
          "internalType": "uint8",
          "name": "",
          "type": "uint8"
        }
      ],
      "stateMutability": "view",
      "type": "function"
    },
    {
      "inputs": [
        {
          "internalType": "address",
          "name": "spender",
          "type": "address"
        },
        {
          "internalType": "uint256",
          "name": "subtractedValue",
          "type": "uint256"
        }
      ],
      "name": "decreaseAllowance",
      "outputs": [
        {
          "internalType": "bool",
          "name": "",
          "type": "bool"
        }
      ],
      "stateMutability": "nonpayable",
      "type": "function"
    },
    {
      "inputs": [
        {
          "internalType": "address",
          "name": "",
          "type": "address"
        },
        {
          "internalType": "uint256",
          "name": "",
          "type": "uint256"
        }
      ],
      "name": "disposeRequests",
      "outputs": [
        {
          "internalType": "address",
          "name": "disposer",
          "type": "address"
        },
        {
          "internalType": "string",
          "name": "itemType",
          "type": "string"
        },
        {
          "internalType": "string",
          "name": "itemName",
          "type": "string"
        },
        {
          "internalType": "string",
          "name": "description",
          "type": "string"
        },
        {
          "internalType": "string",
          "name": "itemCategory",
          "type": "string"
        },
        {
          "internalType": "bool",
          "name": "verified",
          "type": "bool"
        }
      ],
      "stateMutability": "view",
      "type": "function"
    },
    {
      "inputs": [
        {
          "internalType": "address",
          "name": "spender",
          "type": "address"
        },
        {
          "internalType": "uint256",
          "name": "addedValue",
          "type": "uint256"
        }
      ],
      "name": "increaseAllowance",
      "outputs": [
        {
          "internalType": "bool",
          "name": "",
          "type": "bool"
        }
      ],
      "stateMutability": "nonpayable",
      "type": "function"
    },
    {
      "inputs": [
        {
          "internalType": "string",
          "name": "",
          "type": "string"
        }
      ],
      "name": "itemValues",
      "outputs": [
        {
          "internalType": "uint256",
          "name": "",
          "type": "uint256"
        }
      ],
      "stateMutability": "view",
      "type": "function"
    },
    {
      "inputs": [],
      "name": "name",
      "outputs": [
        {
          "internalType": "string",
          "name": "",
          "type": "string"
        }
      ],
      "stateMutability": "view",
      "type": "function"
    },
    {
      "inputs": [],
      "name": "owner",
      "outputs": [
        {
          "internalType": "address",
          "name": "",
          "type": "address"
        }
      ],
      "stateMutability": "view",
      "type": "function"
    },
    {
      "inputs": [],
      "name": "renounceOwnership",
      "outputs": [],
      "stateMutability": "nonpayable",
      "type": "function"
    },
    {
      "inputs": [],
      "name": "symbol",
      "outputs": [
        {
          "internalType": "string",
          "name": "",
          "type": "string"
        }
      ],
      "stateMutability": "view",
      "type": "function"
    },
    {
      "inputs": [],
      "name": "totalSupply",
      "outputs": [
        {
          "internalType": "uint256",
          "name": "",
          "type": "uint256"
        }
      ],
      "stateMutability": "view",
      "type": "function"
    },
    {
      "inputs": [
        {
          "internalType": "address",
          "name": "to",
          "type": "address"
        },
        {
          "internalType": "uint256",
          "name": "amount",
          "type": "uint256"
        }
      ],
      "name": "transfer",
      "outputs": [
        {
          "internalType": "bool",
          "name": "",
          "type": "bool"
        }
      ],
      "stateMutability": "nonpayable",
      "type": "function"
    },
    {
      "inputs": [
        {
          "internalType": "address",
          "name": "from",
          "type": "address"
        },
        {
          "internalType": "address",
          "name": "to",
          "type": "address"
        },
        {
          "internalType": "uint256",
          "name": "amount",
          "type": "uint256"
        }
      ],
      "name": "transferFrom",
      "outputs": [
        {
          "internalType": "bool",
          "name": "",
          "type": "bool"
        }
      ],
      "stateMutability": "nonpayable",
      "type": "function"
    },
    {
      "inputs": [
        {
          "internalType": "address",
          "name": "newOwner",
          "type": "address"
        }
      ],
      "name": "transferOwnership",
      "outputs": [],
      "stateMutability": "nonpayable",
      "type": "function"
    },
    {
      "inputs": [
        {
          "internalType": "string",
          "name": "itemType",
          "type": "string"
        },
        {
          "internalType": "string",
          "name": "itemName",
          "type": "string"
        },
        {
          "internalType": "string",
          "name": "description",
          "type": "string"
        },
        {
          "internalType": "string",
          "name": "itemCategory",
          "type": "string"
        }
      ],
      "name": "sendRequest",
      "outputs": [],
      "stateMutability": "nonpayable",
      "type": "function"
    },
    {
      "inputs": [
        {
          "internalType": "address",
          "name": "disposer",
          "type": "address"
        }
      ],
      "name": "scheduleMeeting",
      "outputs": [],
      "stateMutability": "nonpayable",
      "type": "function"
    },
    {
      "inputs": [
        {
          "internalType": "address",
          "name": "disposer",
          "type": "address"
        },
        {
          "internalType": "uint256",
          "name": "amount",
          "type": "uint256"
        }
      ],
      "name": "verifyAndMintToken",
      "outputs": [],
      "stateMutability": "nonpayable",
      "type": "function"
    }
  ],
  "bytecode": "0x608060405234801562000010575f80fd5b506040518060400160405280600981526020017f436f6d706c69616e7400000000000000000000000000000000000000000000008152506040518060400160405280600381526020017f434145000000000000000000000000000000000000000000000000000000000081525081600390816200008e91906200043f565b508060049081620000a091906200043f565b505050620000c3620000b76200011160201b60201c565b6200011860201b60201c565b60646006604051620000d5906200057b565b90815260200160405180910390208190555060c86006604051620000f990620005df565b908152602001604051809103902081905550620005f5565b5f33905090565b5f60055f9054906101000a900473ffffffffffffffffffffffffffffffffffffffff1690508160055f6101000a81548173ffffffffffffffffffffffffffffffffffffffff021916908373ffffffffffffffffffffffffffffffffffffffff1602179055508173ffffffffffffffffffffffffffffffffffffffff168173ffffffffffffffffffffffffffffffffffffffff167f8be0079c531659141344cd1fd0a4f28419497f9722a3daafe3b4186f6b6457e060405160405180910390a35050565b5f81519050919050565b7f4e487b71000000000000000000000000000000000000000000000000000000005f52604160045260245ffd5b7f4e487b71000000000000000000000000000000000000000000000000000000005f52602260045260245ffd5b5f60028204905060018216806200025757607f821691505b6020821081036200026d576200026c62000212565b5b50919050565b5f819050815f5260205f209050919050565b5f6020601f8301049050919050565b5f82821b905092915050565b5f60088302620002d17fffffffffffffffffffffffffffffffffffffffffffffffffffffffffffffffff8262000294565b620002dd868362000294565b95508019841693508086168417925050509392505050565b5f819050919050565b5f819050919050565b5f62000327620003216200031b84620002f5565b620002fe565b620002f5565b9050919050565b5f819050919050565b620003428362000307565b6200035a62000351826200032e565b848454620002a0565b825550505050565b5f90565b6200037062000362565b6200037d81848462000337565b505050565b5b81811015620003a457620003985f8262000366565b60018101905062000383565b5050565b601f821115620003f357620003bd8162000273565b620003c88462000285565b81016020851015620003d8578190505b620003f0620003e78562000285565b83018262000382565b50505b505050565b5f82821c905092915050565b5f620004155f1984600802620003f8565b1980831691505092915050565b5f6200042f838362000404565b9150826002028217905092915050565b6200044a82620001db565b67ffffffffffffffff811115620004665762000465620001e5565b5b6200047282546200023f565b6200047f828285620003a8565b5f60209050601f831160018114620004b5575f8415620004a0578287015190505b620004ac858262000422565b8655506200051b565b601f198416620004c58662000273565b5f5b82811015620004ee57848901518255600182019150602085019450602081019050620004c7565b868310156200050e57848901516200050a601f89168262000404565b8355505b6001600288020188555050505b505050505050565b5f81905092915050565b7f54797065410000000000000000000000000000000000000000000000000000005f82015250565b5f6200056360058362000523565b915062000570826200052d565b600582019050919050565b5f620005878262000555565b9150819050919050565b7f54797065420000000000000000000000000000000000000000000000000000005f82015250565b5f620005c760058362000523565b9150620005d48262000591565b600582019050919050565b5f620005eb82620005b9565b9150819050919050565b612b9280620006035f395ff3fe608060405234801561000f575f80fd5b506004361061011f575f3560e01c80638da5cb5b116100ab578063b466f1931161006f578063b466f1931461032f578063c828a7841461034b578063dd62ed3e14610367578063f2fde38b14610397578063fb6d0e5c146103b35761011f565b80638da5cb5b1461027757806395d89b4114610295578063a3be0202146102b3578063a457c2d7146102cf578063a9059cbb146102ff5761011f565b8063313ce567116100f2578063313ce567146101bf57806339509351146101dd578063575a1a331461020d57806370a082311461023d578063715018a61461026d5761011f565b806306fdde0314610123578063095ea7b31461014157806318160ddd1461017157806323b872dd1461018f575b5f80fd5b61012b6103e8565b60405161013891906119bd565b60405180910390f35b61015b60048036038101906101569190611a7b565b610478565b6040516101689190611ad3565b60405180910390f35b61017961049a565b6040516101869190611afb565b60405180910390f35b6101a960048036038101906101a49190611b14565b6104a3565b6040516101b69190611ad3565b60405180910390f35b6101c76104d1565b6040516101d49190611b7f565b60405180910390f35b6101f760048036038101906101f29190611a7b565b6104d9565b6040516102049190611ad3565b60405180910390f35b61022760048036038101906102229190611cc4565b61050f565b6040516102349190611afb565b60405180910390f35b61025760048036038101906102529190611d0b565b61053c565b6040516102649190611afb565b60405180910390f35b610275610581565b005b61027f610594565b60405161028c9190611d45565b60405180910390f35b61029d6105bc565b6040516102aa91906119bd565b60405180910390f35b6102cd60048036038101906102c89190611a7b565b61064c565b005b6102e960048036038101906102e49190611a7b565b610961565b6040516102f69190611ad3565b60405180910390f35b61031960048036038101906103149190611a7b565b6109d6565b6040516103269190611ad3565b60405180910390f35b61034960048036038101906103449190611d5e565b6109f8565b005b61036560048036038101906103609190611d0b565b610c1c565b005b610381600480360381019061037c9190611e32565b610de8565b60405161038e9190611afb565b60405180910390f35b6103b160048036038101906103ac9190611d0b565b610e6a565b005b6103cd60048036038101906103c89190611a7b565b610eec565b6040516103df96959493929190611e70565b60405180910390f35b6060600380546103f790611f18565b80601f016020809104026020016040519081016040528092919081815260200182805461042390611f18565b801561046e5780601f106104455761010080835404028352916020019161046e565b820191905f5260205f20905b81548152906001019060200180831161045157829003601f168201915b5050505050905090565b5f80610482611181565b905061048f818585611188565b600191505092915050565b5f600254905090565b5f806104ad611181565b90506104ba85828561134b565b6104c58585856113d6565b60019150509392505050565b5f6012905090565b5f806104e3611181565b90506105048185856104f58589610de8565b6104ff9190611f75565b611188565b600191505092915050565b6006818051602081018201805184825260208301602085012081835280955050505050505f915090505481565b5f805f8373ffffffffffffffffffffffffffffffffffffffff1673ffffffffffffffffffffffffffffffffffffffff1681526020019081526020015f20549050919050565b610589611642565b6105925f6116c0565b565b5f60055f9054906101000a900473ffffffffffffffffffffffffffffffffffffffff16905090565b6060600480546105cb90611f18565b80601f01602080910402602001604051908101604052809291908181526020018280546105f790611f18565b80156106425780601f1061061957610100808354040283529160200191610642565b820191905f5260205f20905b81548152906001019060200180831161062557829003601f168201915b5050505050905090565b80600660075f8573ffffffffffffffffffffffffffffffffffffffff1673ffffffffffffffffffffffffffffffffffffffff1681526020019081526020015f205f8154811061069e5761069d611fa8565b5b905f5260205f2090600602016001016040516106ba9190612071565b90815260200160405180910390205414610709576040517f08c379a0000000000000000000000000000000000000000000000000000000008152600401610700906120d1565b60405180910390fd5b5f60075f8473ffffffffffffffffffffffffffffffffffffffff1673ffffffffffffffffffffffffffffffffffffffff1681526020019081526020015f205f8154811061075957610758611fa8565b5b905f5260205f20906006020190508273ffffffffffffffffffffffffffffffffffffffff16815f015f9054906101000a900473ffffffffffffffffffffffffffffffffffffffff1673ffffffffffffffffffffffffffffffffffffffff161480156107d25750806005015f9054906101000a900460ff16155b610811576040517f08c379a000000000000000000000000000000000000000000000000000000000815260040161080890612139565b60405180910390fd5b61081b3383611783565b6001816005015f6101000a81548160ff0219169083151502179055503373ffffffffffffffffffffffffffffffffffffffff167f95df677b93b4d156862fbfbb05174944f923d64b2055c1009dfcb62440807e1b82600101846040516108829291906121d8565b60405180910390a260075f8473ffffffffffffffffffffffffffffffffffffffff1673ffffffffffffffffffffffffffffffffffffffff1681526020019081526020015f205f815481106108d9576108d8611fa8565b5b905f5260205f2090600602015f8082015f6101000a81549073ffffffffffffffffffffffffffffffffffffffff0219169055600182015f61091a91906118db565b600282015f61092991906118db565b600382015f61093891906118db565b600482015f61094791906118db565b600582015f6101000a81549060ff02191690555050505050565b5f8061096b611181565b90505f6109788286610de8565b9050838110156109bd576040517f08c379a00000000000000000000000000000000000000000000000000000000081526004016109b490612276565b60405180910390fd5b6109ca8286868403611188565b60019250505092915050565b5f806109e0611181565b90506109ed8185856113d6565b600191505092915050565b5f600685604051610a0991906122c4565b90815260200160405180910390205411610a58576040517f08c379a0000000000000000000000000000000000000000000000000000000008152600401610a4f90612324565b60405180910390fd5b5f6040518060c001604052803373ffffffffffffffffffffffffffffffffffffffff1681526020018681526020018581526020018481526020018381526020015f1515815250905060075f3373ffffffffffffffffffffffffffffffffffffffff1673ffffffffffffffffffffffffffffffffffffffff1681526020019081526020015f2081908060018154018082558091505060019003905f5260205f2090600602015f909190919091505f820151815f015f6101000a81548173ffffffffffffffffffffffffffffffffffffffff021916908373ffffffffffffffffffffffffffffffffffffffff1602179055506020820151816001019081610b5d91906124cd565b506040820151816002019081610b7391906124cd565b506060820151816003019081610b8991906124cd565b506080820151816004019081610b9f91906124cd565b5060a0820151816005015f6101000a81548160ff02191690831515021790555050503373ffffffffffffffffffffffffffffffffffffffff167f46fae038e7bbd0e57f5df3071dc16a4718b9a52214674c790c1c3c98407f289086868686604051610c0d949392919061259c565b60405180910390a25050505050565b5f5b60075f8373ffffffffffffffffffffffffffffffffffffffff1673ffffffffffffffffffffffffffffffffffffffff1681526020019081526020015f2080549050811015610da9575f60075f8473ffffffffffffffffffffffffffffffffffffffff1673ffffffffffffffffffffffffffffffffffffffff1681526020019081526020015f208281548110610cb657610cb5611fa8565b5b905f5260205f20906006020190508273ffffffffffffffffffffffffffffffffffffffff16815f015f9054906101000a900473ffffffffffffffffffffffffffffffffffffffff1673ffffffffffffffffffffffffffffffffffffffff16148015610d2f5750806005015f9054906101000a900460ff16155b15610d95578273ffffffffffffffffffffffffffffffffffffffff163373ffffffffffffffffffffffffffffffffffffffff167f6825c21a3faaa6264e92a0d7b8d05de61be575dc02a44642044403b023fff16a60405160405180910390a35050610de5565b508080610da1906125fb565b915050610c1e565b506040517f08c379a0000000000000000000000000000000000000000000000000000000008152600401610ddc906126b2565b60405180910390fd5b50565b5f60015f8473ffffffffffffffffffffffffffffffffffffffff1673ffffffffffffffffffffffffffffffffffffffff1681526020019081526020015f205f8373ffffffffffffffffffffffffffffffffffffffff1673ffffffffffffffffffffffffffffffffffffffff1681526020019081526020015f2054905092915050565b610e72611642565b5f73ffffffffffffffffffffffffffffffffffffffff168173ffffffffffffffffffffffffffffffffffffffff1603610ee0576040517f08c379a0000000000000000000000000000000000000000000000000000000008152600401610ed790612740565b60405180910390fd5b610ee9816116c0565b50565b6007602052815f5260405f208181548110610f05575f80fd5b905f5260205f2090600602015f9150915050805f015f9054906101000a900473ffffffffffffffffffffffffffffffffffffffff1690806001018054610f4a90611f18565b80601f0160208091040260200160405190810160405280929190818152602001828054610f7690611f18565b8015610fc15780601f10610f9857610100808354040283529160200191610fc1565b820191905f5260205f20905b815481529060010190602001808311610fa457829003601f168201915b505050505090806002018054610fd690611f18565b80601f016020809104026020016040519081016040528092919081815260200182805461100290611f18565b801561104d5780601f106110245761010080835404028352916020019161104d565b820191905f5260205f20905b81548152906001019060200180831161103057829003601f168201915b50505050509080600301805461106290611f18565b80601f016020809104026020016040519081016040528092919081815260200182805461108e90611f18565b80156110d95780601f106110b0576101008083540402835291602001916110d9565b820191905f5260205f20905b8154815290600101906020018083116110bc57829003601f168201915b5050505050908060040180546110ee90611f18565b80601f016020809104026020016040519081016040528092919081815260200182805461111a90611f18565b80156111655780601f1061113c57610100808354040283529160200191611165565b820191905f5260205f20905b81548152906001019060200180831161114857829003601f168201915b505050505090806005015f9054906101000a900460ff16905086565b5f33905090565b5f73ffffffffffffffffffffffffffffffffffffffff168373ffffffffffffffffffffffffffffffffffffffff16036111f6576040517f08c379a00000000000000000000000000000000000000000000000000000000081526004016111ed906127ce565b60405180910390fd5b5f73ffffffffffffffffffffffffffffffffffffffff168273ffffffffffffffffffffffffffffffffffffffff1603611264576040517f08c379a000000000000000000000000000000000000000000000000000000000815260040161125b9061285c565b60405180910390fd5b8060015f8573ffffffffffffffffffffffffffffffffffffffff1673ffffffffffffffffffffffffffffffffffffffff1681526020019081526020015f205f8473ffffffffffffffffffffffffffffffffffffffff1673ffffffffffffffffffffffffffffffffffffffff1681526020019081526020015f20819055508173ffffffffffffffffffffffffffffffffffffffff168373ffffffffffffffffffffffffffffffffffffffff167f8c5be1e5ebec7d5bd14f71427d1e84f3dd0314c0f7b2291e5b200ac8c7c3b9258360405161133e9190611afb565b60405180910390a3505050565b5f6113568484610de8565b90507fffffffffffffffffffffffffffffffffffffffffffffffffffffffffffffffff81146113d057818110156113c2576040517f08c379a00000000000000000000000000000000000000000000000000000000081526004016113b9906128c4565b60405180910390fd5b6113cf8484848403611188565b5b50505050565b5f73ffffffffffffffffffffffffffffffffffffffff168373ffffffffffffffffffffffffffffffffffffffff1603611444576040517f08c379a000000000000000000000000000000000000000000000000000000000815260040161143b90612952565b60405180910390fd5b5f73ffffffffffffffffffffffffffffffffffffffff168273ffffffffffffffffffffffffffffffffffffffff16036114b2576040517f08c379a00000000000000000000000000000000000000000000000000000000081526004016114a9906129e0565b60405180910390fd5b6114bd8383836118d1565b5f805f8573ffffffffffffffffffffffffffffffffffffffff1673ffffffffffffffffffffffffffffffffffffffff1681526020019081526020015f2054905081811015611540576040517f08c379a000000000000000000000000000000000000000000000000000000000815260040161153790612a6e565b60405180910390fd5b8181035f808673ffffffffffffffffffffffffffffffffffffffff1673ffffffffffffffffffffffffffffffffffffffff1681526020019081526020015f2081905550815f808573ffffffffffffffffffffffffffffffffffffffff1673ffffffffffffffffffffffffffffffffffffffff1681526020019081526020015f205f82825401925050819055508273ffffffffffffffffffffffffffffffffffffffff168473ffffffffffffffffffffffffffffffffffffffff167fddf252ad1be2c89b69c2b068fc378daa952ba7f163c4a11628f55a4df523b3ef846040516116299190611afb565b60405180910390a361163c8484846118d6565b50505050565b61164a611181565b73ffffffffffffffffffffffffffffffffffffffff16611668610594565b73ffffffffffffffffffffffffffffffffffffffff16146116be576040517f08c379a00000000000000000000000000000000000000000000000000000000081526004016116b590612ad6565b60405180910390fd5b565b5f60055f9054906101000a900473ffffffffffffffffffffffffffffffffffffffff1690508160055f6101000a81548173ffffffffffffffffffffffffffffffffffffffff021916908373ffffffffffffffffffffffffffffffffffffffff1602179055508173ffffffffffffffffffffffffffffffffffffffff168173ffffffffffffffffffffffffffffffffffffffff167f8be0079c531659141344cd1fd0a4f28419497f9722a3daafe3b4186f6b6457e060405160405180910390a35050565b5f73ffffffffffffffffffffffffffffffffffffffff168273ffffffffffffffffffffffffffffffffffffffff16036117f1576040517f08c379a00000000000000000000000000000000000000000000000000000000081526004016117e890612b3e565b60405180910390fd5b6117fc5f83836118d1565b8060025f82825461180d9190611f75565b92505081905550805f808473ffffffffffffffffffffffffffffffffffffffff1673ffffffffffffffffffffffffffffffffffffffff1681526020019081526020015f205f82825401925050819055508173ffffffffffffffffffffffffffffffffffffffff165f73ffffffffffffffffffffffffffffffffffffffff167fddf252ad1be2c89b69c2b068fc378daa952ba7f163c4a11628f55a4df523b3ef836040516118ba9190611afb565b60405180910390a36118cd5f83836118d6565b5050565b505050565b505050565b5080546118e790611f18565b5f825580601f106118f85750611915565b601f0160209004905f5260205f20908101906119149190611918565b5b50565b5b8082111561192f575f815f905550600101611919565b5090565b5f81519050919050565b5f82825260208201905092915050565b5f5b8381101561196a57808201518184015260208101905061194f565b5f8484015250505050565b5f601f19601f8301169050919050565b5f61198f82611933565b611999818561193d565b93506119a981856020860161194d565b6119b281611975565b840191505092915050565b5f6020820190508181035f8301526119d58184611985565b905092915050565b5f604051905090565b5f80fd5b5f80fd5b5f73ffffffffffffffffffffffffffffffffffffffff82169050919050565b5f611a17826119ee565b9050919050565b611a2781611a0d565b8114611a31575f80fd5b50565b5f81359050611a4281611a1e565b92915050565b5f819050919050565b611a5a81611a48565b8114611a64575f80fd5b50565b5f81359050611a7581611a51565b92915050565b5f8060408385031215611a9157611a906119e6565b5b5f611a9e85828601611a34565b9250506020611aaf85828601611a67565b9150509250929050565b5f8115159050919050565b611acd81611ab9565b82525050565b5f602082019050611ae65f830184611ac4565b92915050565b611af581611a48565b82525050565b5f602082019050611b0e5f830184611aec565b92915050565b5f805f60608486031215611b2b57611b2a6119e6565b5b5f611b3886828701611a34565b9350506020611b4986828701611a34565b9250506040611b5a86828701611a67565b9150509250925092565b5f60ff82169050919050565b611b7981611b64565b82525050565b5f602082019050611b925f830184611b70565b92915050565b5f80fd5b5f80fd5b7f4e487b71000000000000000000000000000000000000000000000000000000005f52604160045260245ffd5b611bd682611975565b810181811067ffffffffffffffff82111715611bf557611bf4611ba0565b5b80604052505050565b5f611c076119dd565b9050611c138282611bcd565b919050565b5f67ffffffffffffffff821115611c3257611c31611ba0565b5b611c3b82611975565b9050602081019050919050565b828183375f83830152505050565b5f611c68611c6384611c18565b611bfe565b905082815260208101848484011115611c8457611c83611b9c565b5b611c8f848285611c48565b509392505050565b5f82601f830112611cab57611caa611b98565b5b8135611cbb848260208601611c56565b91505092915050565b5f60208284031215611cd957611cd86119e6565b5b5f82013567ffffffffffffffff811115611cf657611cf56119ea565b5b611d0284828501611c97565b91505092915050565b5f60208284031215611d2057611d1f6119e6565b5b5f611d2d84828501611a34565b91505092915050565b611d3f81611a0d565b82525050565b5f602082019050611d585f830184611d36565b92915050565b5f805f8060808587031215611d7657611d756119e6565b5b5f85013567ffffffffffffffff811115611d9357611d926119ea565b5b611d9f87828801611c97565b945050602085013567ffffffffffffffff811115611dc057611dbf6119ea565b5b611dcc87828801611c97565b935050604085013567ffffffffffffffff811115611ded57611dec6119ea565b5b611df987828801611c97565b925050606085013567ffffffffffffffff811115611e1a57611e196119ea565b5b611e2687828801611c97565b91505092959194509250565b5f8060408385031215611e4857611e476119e6565b5b5f611e5585828601611a34565b9250506020611e6685828601611a34565b9150509250929050565b5f60c082019050611e835f830189611d36565b8181036020830152611e958188611985565b90508181036040830152611ea98187611985565b90508181036060830152611ebd8186611985565b90508181036080830152611ed18185611985565b9050611ee060a0830184611ac4565b979650505050505050565b7f4e487b71000000000000000000000000000000000000000000000000000000005f52602260045260245ffd5b5f6002820490506001821680611f2f57607f821691505b602082108103611f4257611f41611eeb565b5b50919050565b7f4e487b71000000000000000000000000000000000000000000000000000000005f52601160045260245ffd5b5f611f7f82611a48565b9150611f8a83611a48565b9250828201905080821115611fa257611fa1611f48565b5b92915050565b7f4e487b71000000000000000000000000000000000000000000000000000000005f52603260045260245ffd5b5f81905092915050565b5f819050815f5260205f209050919050565b5f8154611ffd81611f18565b6120078186611fd5565b9450600182165f8114612021576001811461203657612068565b60ff1983168652811515820286019350612068565b61203f85611fdf565b5f5b8381101561206057815481890152600182019150602081019050612041565b838801955050505b50505092915050565b5f61207c8284611ff1565b915081905092915050565b7f496e76616c696420616d6f756e740000000000000000000000000000000000005f82015250565b5f6120bb600e8361193d565b91506120c682612087565b602082019050919050565b5f6020820190508181035f8301526120e8816120af565b9050919050565b7f496e76616c69642073616c6520726571756573740000000000000000000000005f82015250565b5f61212360148361193d565b915061212e826120ef565b602082019050919050565b5f6020820190508181035f83015261215081612117565b9050919050565b5f815461216381611f18565b61216d818661193d565b9450600182165f8114612187576001811461219d576121cf565b60ff1983168652811515602002860193506121cf565b6121a685611fdf565b5f5b838110156121c7578154818901526001820191506020810190506121a8565b808801955050505b50505092915050565b5f6040820190508181035f8301526121f08185612157565b90506121ff6020830184611aec565b9392505050565b7f45524332303a2064656372656173656420616c6c6f77616e63652062656c6f775f8201527f207a65726f000000000000000000000000000000000000000000000000000000602082015250565b5f61226060258361193d565b915061226b82612206565b604082019050919050565b5f6020820190508181035f83015261228d81612254565b9050919050565b5f61229e82611933565b6122a88185611fd5565b93506122b881856020860161194d565b80840191505092915050565b5f6122cf8284612294565b915081905092915050565b7f496e76616c6964206974656d20747970650000000000000000000000000000005f82015250565b5f61230e60118361193d565b9150612319826122da565b602082019050919050565b5f6020820190508181035f83015261233b81612302565b9050919050565b5f6020601f8301049050919050565b5f82821b905092915050565b5f6008830261238c7fffffffffffffffffffffffffffffffffffffffffffffffffffffffffffffffff82612351565b6123968683612351565b95508019841693508086168417925050509392505050565b5f819050919050565b5f6123d16123cc6123c784611a48565b6123ae565b611a48565b9050919050565b5f819050919050565b6123ea836123b7565b6123fe6123f6826123d8565b84845461235d565b825550505050565b5f90565b612412612406565b61241d8184846123e1565b505050565b5b81811015612440576124355f8261240a565b600181019050612423565b5050565b601f8211156124855761245681611fdf565b61245f84612342565b8101602085101561246e578190505b61248261247a85612342565b830182612422565b50505b505050565b5f82821c905092915050565b5f6124a55f198460080261248a565b1980831691505092915050565b5f6124bd8383612496565b9150826002028217905092915050565b6124d682611933565b67ffffffffffffffff8111156124ef576124ee611ba0565b5b6124f98254611f18565b612504828285612444565b5f60209050601f831160018114612535575f8415612523578287015190505b61252d85826124b2565b865550612594565b601f19841661254386611fdf565b5f5b8281101561256a57848901518255600182019150602085019450602081019050612545565b868310156125875784890151612583601f891682612496565b8355505b6001600288020188555050505b505050505050565b5f6080820190508181035f8301526125b48187611985565b905081810360208301526125c88186611985565b905081810360408301526125dc8185611985565b905081810360608301526125f08184611985565b905095945050505050565b5f61260582611a48565b91507fffffffffffffffffffffffffffffffffffffffffffffffffffffffffffffffff820361263757612636611f48565b5b600182019050919050565b7f4e6f20756e76657269666965642073616c6520726571756573747320666f756e5f8201527f6400000000000000000000000000000000000000000000000000000000000000602082015250565b5f61269c60218361193d565b91506126a782612642565b604082019050919050565b5f6020820190508181035f8301526126c981612690565b9050919050565b7f4f776e61626c653a206e6577206f776e657220697320746865207a65726f20615f8201527f6464726573730000000000000000000000000000000000000000000000000000602082015250565b5f61272a60268361193d565b9150612735826126d0565b604082019050919050565b5f6020820190508181035f8301526127578161271e565b9050919050565b7f45524332303a20617070726f76652066726f6d20746865207a65726f206164645f8201527f7265737300000000000000000000000000000000000000000000000000000000602082015250565b5f6127b860248361193d565b91506127c38261275e565b604082019050919050565b5f6020820190508181035f8301526127e5816127ac565b9050919050565b7f45524332303a20617070726f766520746f20746865207a65726f2061646472655f8201527f7373000000000000000000000000000000000000000000000000000000000000602082015250565b5f61284660228361193d565b9150612851826127ec565b604082019050919050565b5f6020820190508181035f8301526128738161283a565b9050919050565b7f45524332303a20696e73756666696369656e7420616c6c6f77616e63650000005f82015250565b5f6128ae601d8361193d565b91506128b98261287a565b602082019050919050565b5f6020820190508181035f8301526128db816128a2565b9050919050565b7f45524332303a207472616e736665722066726f6d20746865207a65726f2061645f8201527f6472657373000000000000000000000000000000000000000000000000000000602082015250565b5f61293c60258361193d565b9150612947826128e2565b604082019050919050565b5f6020820190508181035f83015261296981612930565b9050919050565b7f45524332303a207472616e7366657220746f20746865207a65726f20616464725f8201527f6573730000000000000000000000000000000000000000000000000000000000602082015250565b5f6129ca60238361193d565b91506129d582612970565b604082019050919050565b5f6020820190508181035f8301526129f7816129be565b9050919050565b7f45524332303a207472616e7366657220616d6f756e74206578636565647320625f8201527f616c616e63650000000000000000000000000000000000000000000000000000602082015250565b5f612a5860268361193d565b9150612a63826129fe565b604082019050919050565b5f6020820190508181035f830152612a8581612a4c565b9050919050565b7f4f776e61626c653a2063616c6c6572206973206e6f7420746865206f776e65725f82015250565b5f612ac060208361193d565b9150612acb82612a8c565b602082019050919050565b5f6020820190508181035f830152612aed81612ab4565b9050919050565b7f45524332303a206d696e7420746f20746865207a65726f2061646472657373005f82015250565b5f612b28601f8361193d565b9150612b3382612af4565b602082019050919050565b5f6020820190508181035f830152612b5581612b1c565b905091905056fea26469706673582212202546ee60cf957446ede3b385a459215a32d77b1893f79d4238f6cb0a3f73bea464736f6c63430008150033",
  "immutableReferences": {},
  "source": "// SPDX-License-Identifier: MIT\npragma solidity ^0.8.9;\n\nimport \"@openzeppelin/contracts/token/ERC20/ERC20.sol\";\nimport \"@openzeppelin/contracts/access/Ownable.sol\";\n\ncontract Compliant is ERC20(\"Compliant\", \"CAE\"), Ownable {\n    // Mapping to store the item type and its fixed price\n    mapping(string => uint256) public itemValues;\n\n    // Events to track important contract actions\n    event ItemRequested(address indexed disposer, string itemType, string itemName, string description, string itemCategory);\n    event MeetingScheduled(address indexed collector, address indexed disposer);\n    event ItemVerifiedAndMinted(address indexed collector, string itemType, uint256 amount);\n\n    // Struct to represent a sale request\n    struct DisposeRequest {\n        address disposer;\n        string itemType;\n        string itemName;\n        string description;\n        string itemCategory;\n        bool verified;\n    }\n\n    // Mapping to store dispose requests by the disposer's address\n    mapping(address => DisposeRequest[]) public disposeRequests;\n\n    constructor() {\n        // Initialize item prices\n        itemValues[\"TypeA\"] = 100; // Set the fixed price for item type A\n        itemValues[\"TypeB\"] = 200; // Set the fixed price for item type B\n        // Add more item types and prices as needed\n    }\n\n    // Function for a disposer to send a request to the collector\n    function sendRequest(string memory itemType, string memory itemName, string memory description, string memory itemCategory) external {\n        require(itemValues[itemType] > 0, \"Invalid item type\");\n        DisposeRequest memory newRequest = DisposeRequest(msg.sender, itemType, itemName, description, itemCategory, false);\n        disposeRequests[msg.sender].push(newRequest);\n        emit ItemRequested(msg.sender, itemType, itemName, description, itemCategory);\n    }\n\n    // Function for a collector to schedule a meeting\n    function scheduleMeeting(address disposer) external {\n        for (uint256 i = 0; i < disposeRequests[disposer].length; i++) {\n            DisposeRequest storage request = disposeRequests[disposer][i];\n            if (request.disposer == disposer && !request.verified) {\n                emit MeetingScheduled(msg.sender, disposer);\n                return;\n            }\n        }\n        revert(\"No unverified sale requests found\");\n    }\n\n    // Function for a collector to verify the item and mint the token\n    function verifyAndMintToken(address disposer, uint256 amount) external {\n        require(itemValues[disposeRequests[disposer][0].itemType] == amount, \"Invalid amount\");\n        DisposeRequest storage request = disposeRequests[disposer][0];\n        require(request.disposer == disposer && !request.verified, \"Invalid sale request\");\n\n        // Mint tokens and transfer to the collector\n        _mint(msg.sender, amount);\n\n        // Mark the sale request as verified\n        request.verified = true;\n\n        emit ItemVerifiedAndMinted(msg.sender, request.itemType, amount);\n\n        // Delete the disposer request once the transaction is complete\n        delete disposeRequests[disposer][0];\n    }\n}\n",
  "sourcePath": "/Users/rohithreddykota/personal/hackathon/compliant-to-earn/contracts/Compliant.sol",
  "compiler": {
    "name": "solc",
    "version": "0.8.21+commit.d9974bed.Emscripten.clang"
  },
  "schemaVersion": "3.4.16",
  "updatedAt": "2023-10-07T23:57:30.561Z",
  "devdoc": {
    "events": {
      "Approval(address,address,uint256)": {
        "details": "Emitted when the allowance of a `spender` for an `owner` is set by a call to {approve}. `value` is the new allowance."
      },
      "Transfer(address,address,uint256)": {
        "details": "Emitted when `value` tokens are moved from one account (`from`) to another (`to`). Note that `value` may be zero."
      }
    },
    "kind": "dev",
    "methods": {
      "allowance(address,address)": {
        "details": "See {IERC20-allowance}."
      },
      "approve(address,uint256)": {
        "details": "See {IERC20-approve}. NOTE: If `amount` is the maximum `uint256`, the allowance is not updated on `transferFrom`. This is semantically equivalent to an infinite approval. Requirements: - `spender` cannot be the zero address."
      },
      "balanceOf(address)": {
        "details": "See {IERC20-balanceOf}."
      },
      "decimals()": {
        "details": "Returns the number of decimals used to get its user representation. For example, if `decimals` equals `2`, a balance of `505` tokens should be displayed to a user as `5.05` (`505 / 10 ** 2`). Tokens usually opt for a value of 18, imitating the relationship between Ether and Wei. This is the value {ERC20} uses, unless this function is overridden; NOTE: This information is only used for _display_ purposes: it in no way affects any of the arithmetic of the contract, including {IERC20-balanceOf} and {IERC20-transfer}."
      },
      "decreaseAllowance(address,uint256)": {
        "details": "Atomically decreases the allowance granted to `spender` by the caller. This is an alternative to {approve} that can be used as a mitigation for problems described in {IERC20-approve}. Emits an {Approval} event indicating the updated allowance. Requirements: - `spender` cannot be the zero address. - `spender` must have allowance for the caller of at least `subtractedValue`."
      },
      "increaseAllowance(address,uint256)": {
        "details": "Atomically increases the allowance granted to `spender` by the caller. This is an alternative to {approve} that can be used as a mitigation for problems described in {IERC20-approve}. Emits an {Approval} event indicating the updated allowance. Requirements: - `spender` cannot be the zero address."
      },
      "name()": {
        "details": "Returns the name of the token."
      },
      "owner()": {
        "details": "Returns the address of the current owner."
      },
      "renounceOwnership()": {
        "details": "Leaves the contract without owner. It will not be possible to call `onlyOwner` functions anymore. Can only be called by the current owner. NOTE: Renouncing ownership will leave the contract without an owner, thereby removing any functionality that is only available to the owner."
      },
      "symbol()": {
        "details": "Returns the symbol of the token, usually a shorter version of the name."
      },
      "totalSupply()": {
        "details": "See {IERC20-totalSupply}."
      },
      "transfer(address,uint256)": {
        "details": "See {IERC20-transfer}. Requirements: - `to` cannot be the zero address. - the caller must have a balance of at least `amount`."
      },
      "transferFrom(address,address,uint256)": {
        "details": "See {IERC20-transferFrom}. Emits an {Approval} event indicating the updated allowance. This is not required by the EIP. See the note at the beginning of {ERC20}. NOTE: Does not update the allowance if the current allowance is the maximum `uint256`. Requirements: - `from` and `to` cannot be the zero address. - `from` must have a balance of at least `amount`. - the caller must have allowance for ``from``'s tokens of at least `amount`."
      },
      "transferOwnership(address)": {
        "details": "Transfers ownership of the contract to a new account (`newOwner`). Can only be called by the current owner."
      }
    },
    "version": 1
  },
  "userdoc": {
    "kind": "user",
    "methods": {},
    "version": 1
  }
}