{
  "contractName": "Redeem",
  "abi": [
    {
      "inputs": [
        {
          "internalType": "address",
          "name": "_compliantTokenAddress",
          "type": "address"
        }
      ],
      "stateMutability": "nonpayable",
      "type": "constructor"
    },
    {
      "anonymous": false,
      "inputs": [
        {
          "indexed": true,
          "internalType": "address",
          "name": "previousOwner",
          "type": "address"
        },
        {
          "indexed": true,
          "internalType": "address",
          "name": "newOwner",
          "type": "address"
        }
      ],
      "name": "OwnershipTransferred",
      "type": "event"
    },
    {
      "anonymous": false,
      "inputs": [
        {
          "indexed": true,
          "internalType": "address",
          "name": "seller",
          "type": "address"
        },
        {
          "indexed": false,
          "internalType": "uint256",
          "name": "amount",
          "type": "uint256"
        }
      ],
      "name": "TokensRedeemed",
      "type": "event"
    },
    {
      "inputs": [],
      "name": "compliantToken",
      "outputs": [
        {
          "internalType": "contract ERC20Burnable",
          "name": "",
          "type": "address"
        }
      ],
      "stateMutability": "view",
      "type": "function"
    },
    {
      "inputs": [],
      "name": "owner",
      "outputs": [
        {
          "internalType": "address",
          "name": "",
          "type": "address"
        }
      ],
      "stateMutability": "view",
      "type": "function"
    },
    {
      "inputs": [],
      "name": "renounceOwnership",
      "outputs": [],
      "stateMutability": "nonpayable",
      "type": "function"
    },
    {
      "inputs": [
        {
          "internalType": "address",
          "name": "newOwner",
          "type": "address"
        }
      ],
      "name": "transferOwnership",
      "outputs": [],
      "stateMutability": "nonpayable",
      "type": "function"
    },
    {
      "inputs": [
        {
          "internalType": "uint256",
          "name": "tokenAmount",
          "type": "uint256"
        }
      ],
      "name": "redeem",
      "outputs": [],
      "stateMutability": "nonpayable",
      "type": "function"
    },
    {
      "inputs": [
        {
          "internalType": "uint256",
          "name": "tokenAmount",
          "type": "uint256"
        }
      ],
      "name": "burnTokens",
      "outputs": [],
      "stateMutability": "nonpayable",
      "type": "function"
    },
    {
      "inputs": [
        {
          "internalType": "uint256",
          "name": "tokenAmount",
          "type": "uint256"
        }
      ],
      "name": "withdrawTokens",
      "outputs": [],
      "stateMutability": "nonpayable",
      "type": "function"
    }
  ],
  "bytecode": "0x608060405234801561000f575f80fd5b50604051610d2a380380610d2a833981810160405281019061003191906101b9565b61004d61004261009360201b60201c565b61009a60201b60201c565b8060015f6101000a81548173ffffffffffffffffffffffffffffffffffffffff021916908373ffffffffffffffffffffffffffffffffffffffff160217905550506101e4565b5f33905090565b5f805f9054906101000a900473ffffffffffffffffffffffffffffffffffffffff169050815f806101000a81548173ffffffffffffffffffffffffffffffffffffffff021916908373ffffffffffffffffffffffffffffffffffffffff1602179055508173ffffffffffffffffffffffffffffffffffffffff168173ffffffffffffffffffffffffffffffffffffffff167f8be0079c531659141344cd1fd0a4f28419497f9722a3daafe3b4186f6b6457e060405160405180910390a35050565b5f80fd5b5f73ffffffffffffffffffffffffffffffffffffffff82169050919050565b5f6101888261015f565b9050919050565b6101988161017e565b81146101a2575f80fd5b50565b5f815190506101b38161018f565b92915050565b5f602082840312156101ce576101cd61015b565b5b5f6101db848285016101a5565b91505092915050565b610b39806101f15f395ff3fe608060405234801561000f575f80fd5b506004361061007b575f3560e01c80638da5cb5b116100595780638da5cb5b146100c1578063db006a75146100df578063e3868c0d146100fb578063f2fde38b146101195761007b565b8063315a095d1461007f5780636d1b229d1461009b578063715018a6146100b7575b5f80fd5b610099600480360381019061009491906106d7565b610135565b005b6100b560048036038101906100b091906106d7565b610222565b005b6100bf610309565b005b6100c961031c565b6040516100d69190610741565b60405180910390f35b6100f960048036038101906100f491906106d7565b610343565b005b6101036104b3565b60405161011091906107b5565b60405180910390f35b610133600480360381019061012e91906107f8565b6104d8565b005b61013d61055a565b60015f9054906101000a900473ffffffffffffffffffffffffffffffffffffffff1673ffffffffffffffffffffffffffffffffffffffff1663a9059cbb61018261031c565b836040518363ffffffff1660e01b81526004016101a0929190610832565b6020604051808303815f875af11580156101bc573d5f803e3d5ffd5b505050506040513d601f19601f820116820180604052508101906101e0919061088e565b61021f576040517f08c379a000000000000000000000000000000000000000000000000000000000815260040161021690610913565b60405180910390fd5b50565b61022a61055a565b60015f9054906101000a900473ffffffffffffffffffffffffffffffffffffffff1673ffffffffffffffffffffffffffffffffffffffff166342966c68826040518263ffffffff1660e01b81526004016102849190610931565b5f604051808303815f87803b15801561029b575f80fd5b505af11580156102ad573d5f803e3d5ffd5b505050506102b961031c565b73ffffffffffffffffffffffffffffffffffffffff167fcdd4c59de26b3f8623e6012ab9bc32a995eda3452d89c941fc8af6b74276ad38826040516102fe9190610931565b60405180910390a250565b61031161055a565b61031a5f6105d8565b565b5f805f9054906101000a900473ffffffffffffffffffffffffffffffffffffffff16905090565b5f8111610385576040517f08c379a000000000000000000000000000000000000000000000000000000000815260040161037c906109ba565b60405180910390fd5b60015f9054906101000a900473ffffffffffffffffffffffffffffffffffffffff1673ffffffffffffffffffffffffffffffffffffffff166323b872dd3330846040518463ffffffff1660e01b81526004016103e3939291906109d8565b6020604051808303815f875af11580156103ff573d5f803e3d5ffd5b505050506040513d601f19601f82011682018060405250810190610423919061088e565b610462576040517f08c379a000000000000000000000000000000000000000000000000000000000815260040161045990610913565b60405180910390fd5b3373ffffffffffffffffffffffffffffffffffffffff167fcdd4c59de26b3f8623e6012ab9bc32a995eda3452d89c941fc8af6b74276ad38826040516104a89190610931565b60405180910390a250565b60015f9054906101000a900473ffffffffffffffffffffffffffffffffffffffff1681565b6104e061055a565b5f73ffffffffffffffffffffffffffffffffffffffff168173ffffffffffffffffffffffffffffffffffffffff160361054e576040517f08c379a000000000000000000000000000000000000000000000000000000000815260040161054590610a7d565b60405180910390fd5b610557816105d8565b50565b610562610699565b73ffffffffffffffffffffffffffffffffffffffff1661058061031c565b73ffffffffffffffffffffffffffffffffffffffff16146105d6576040517f08c379a00000000000000000000000000000000000000000000000000000000081526004016105cd90610ae5565b60405180910390fd5b565b5f805f9054906101000a900473ffffffffffffffffffffffffffffffffffffffff169050815f806101000a81548173ffffffffffffffffffffffffffffffffffffffff021916908373ffffffffffffffffffffffffffffffffffffffff1602179055508173ffffffffffffffffffffffffffffffffffffffff168173ffffffffffffffffffffffffffffffffffffffff167f8be0079c531659141344cd1fd0a4f28419497f9722a3daafe3b4186f6b6457e060405160405180910390a35050565b5f33905090565b5f80fd5b5f819050919050565b6106b6816106a4565b81146106c0575f80fd5b50565b5f813590506106d1816106ad565b92915050565b5f602082840312156106ec576106eb6106a0565b5b5f6106f9848285016106c3565b91505092915050565b5f73ffffffffffffffffffffffffffffffffffffffff82169050919050565b5f61072b82610702565b9050919050565b61073b81610721565b82525050565b5f6020820190506107545f830184610732565b92915050565b5f819050919050565b5f61077d61077861077384610702565b61075a565b610702565b9050919050565b5f61078e82610763565b9050919050565b5f61079f82610784565b9050919050565b6107af81610795565b82525050565b5f6020820190506107c85f8301846107a6565b92915050565b6107d781610721565b81146107e1575f80fd5b50565b5f813590506107f2816107ce565b92915050565b5f6020828403121561080d5761080c6106a0565b5b5f61081a848285016107e4565b91505092915050565b61082c816106a4565b82525050565b5f6040820190506108455f830185610732565b6108526020830184610823565b9392505050565b5f8115159050919050565b61086d81610859565b8114610877575f80fd5b50565b5f8151905061088881610864565b92915050565b5f602082840312156108a3576108a26106a0565b5b5f6108b08482850161087a565b91505092915050565b5f82825260208201905092915050565b7f546f6b656e207472616e73666572206661696c656400000000000000000000005f82015250565b5f6108fd6015836108b9565b9150610908826108c9565b602082019050919050565b5f6020820190508181035f83015261092a816108f1565b9050919050565b5f6020820190506109445f830184610823565b92915050565b7f546f6b656e20616d6f756e74206d7573742062652067726561746572207468615f8201527f6e20300000000000000000000000000000000000000000000000000000000000602082015250565b5f6109a46023836108b9565b91506109af8261094a565b604082019050919050565b5f6020820190508181035f8301526109d181610998565b9050919050565b5f6060820190506109eb5f830186610732565b6109f86020830185610732565b610a056040830184610823565b949350505050565b7f4f776e61626c653a206e6577206f776e657220697320746865207a65726f20615f8201527f6464726573730000000000000000000000000000000000000000000000000000602082015250565b5f610a676026836108b9565b9150610a7282610a0d565b604082019050919050565b5f6020820190508181035f830152610a9481610a5b565b9050919050565b7f4f776e61626c653a2063616c6c6572206973206e6f7420746865206f776e65725f82015250565b5f610acf6020836108b9565b9150610ada82610a9b565b602082019050919050565b5f6020820190508181035f830152610afc81610ac3565b905091905056fea2646970667358221220b3a4e4c2368d326d0fce9abcee167bbbd20d3b3ade356252e71ea8affcefedf964736f6c63430008150033",
  "immutableReferences": {},
  "source": "// SPDX-License-Identifier: MIT\npragma solidity ^0.8.9;\n\nimport \"@openzeppelin/contracts/token/ERC20/extensions/ERC20Burnable.sol\";\nimport \"@openzeppelin/contracts/access/Ownable.sol\";\n\ncontract Redeem is Ownable {\n    ERC20Burnable public compliantToken;  // Reference to the ItemSaleToken contract\n\n    event TokensRedeemed(address indexed seller, uint256 amount);\n\n    constructor(address _compliantTokenAddress) {\n        compliantToken = ERC20Burnable(_compliantTokenAddress);\n    }\n\n    // Compliant user uses tokens as a redeem points\n    function redeem(uint256 tokenAmount) external {\n        require(tokenAmount > 0, \"Token amount must be greater than 0\");\n        require(compliantToken.transferFrom(msg.sender, address(this), tokenAmount), \"Token transfer failed\");\n\n        // todo: implement the total tax payable here.\n\n        emit TokensRedeemed(msg.sender, tokenAmount);\n    }\n\n    // Tax Collector can burn the received tokens\n    function burnTokens(uint256 tokenAmount) external onlyOwner {\n        compliantToken.burn(tokenAmount); // Burn the tokens using the ERC20Burnable function\n\n        emit TokensRedeemed(owner(), tokenAmount);\n    }\n\n    // todo: remove me\n    // Owner can withdraw any remaining tokens in the contract (if needed)\n    function withdrawTokens(uint256 tokenAmount) external onlyOwner {\n        require(compliantToken.transfer(owner(), tokenAmount), \"Token transfer failed\");\n    }\n}\n",
  "sourcePath": "/Users/rohithreddykota/personal/hackathon/compliant-to-earn/contracts/Redeem.sol",
  "compiler": {
    "name": "solc",
    "version": "0.8.21+commit.d9974bed.Emscripten.clang"
  },
  "schemaVersion": "3.4.16",
  "updatedAt": "2023-10-07T23:57:30.567Z",
  "devdoc": {
    "kind": "dev",
    "methods": {
      "owner()": {
        "details": "Returns the address of the current owner."
      },
      "renounceOwnership()": {
        "details": "Leaves the contract without owner. It will not be possible to call `onlyOwner` functions anymore. Can only be called by the current owner. NOTE: Renouncing ownership will leave the contract without an owner, thereby removing any functionality that is only available to the owner."
      },
      "transferOwnership(address)": {
        "details": "Transfers ownership of the contract to a new account (`newOwner`). Can only be called by the current owner."
      }
    },
    "version": 1
  },
  "userdoc": {
    "kind": "user",
    "methods": {},
    "version": 1
  }
}